:020000040000FA
:10000000E85B0010E1000000E9000000EB000000E8
:10001000ED000000EF000000F10000000000000013
:1000200000000000000000000000000005010000CA
:10003000F5000000000000007101000081010000D7
:10004000FB000000FB000000FB000000FB000000C4
:10005000FB000000FB000000FB000000FB000000B4
:10006000FB000000FB000000FB000000FB000000A4
:10007000FB000000FB000000FB000000E53D00006D
:10008000FB000000B53A0000FB000000FB00000090
:10009000FB000000F92E0000FB000000FB00000048
:1000A000FB000000FB000000492D0000FB000000E9
:1000B000452F0000FB000000FB000000FB000000DB
:1000C000FB000000FB000000FB000000DFF80CD08C
:1000D00000F024FD00480047D1770000E85B0010E5
:1000E0000648804706480047FEE7FEE7FEE7FEE7D2
:1000F000FEE7FEE7FEE7FEE7FEE7FEE79D4C0000B9
:10010000CD0000001EF0040F0CBFEFF30880EFF3EA
:100110000980816911F8021CD9B901B590E80F1066
:10012000E047BDE800508CE80300194B93E8060057
:10013000914208BF704719B12CE9F00FC1F838C0DF
:100140001A60906BB0E8F00F80F309886FF0020E30
:100150007047104A13689942FAD801B552F821C085
:100160000FC8E047BDE80050CCF800007047000021
:1001700001B501F025FBBDE80140EFF3098CD4E7A0
:1001800001B501F079FDBDE80140EFF3098CCCE742
:10019000DC1C0010385001002DE9F05F05460020FE
:1001A00092469B4688460646814640241BE02846E8
:1001B00041464746224600F036FA53465A46C01A90
:1001C000914110D311461846224600F01DFA2D1A0F
:1001D00067EB01084F4622460120002100F014FA87
:1001E00017EB00094E41201EA4F10104DFDC484654
:1001F00031462A464346BDE8F09F0000014610B54F
:1002000009683C22B1FBF2F302FB1313B1FBF2F1DC
:100210001D480360B1FBF2F302FB1313B1FBF2F1D3
:1002200018224360B1FBF2F302FB1313B1FBF2F1AE
:1002300083600A1D0723B2FBF3F403FB14228261DF
:100240008A0040F2B55102F66C32B2FBF1F344334E
:100250004361B2FBF1F301FB13218908C1613B2922
:1002600003D3027D920700D0491C0022074C13469D
:100270000261E25C8A4203D8891A5B1C0361F8E7D9
:10028000491CC16010BD0000BC590010D8540100C9
:1002900040EA01039B0703D009E008C9121F08C008
:1002A000042AFAD203E011F8013B00F8013B521E88
:1002B000F9D27047D2B201E000F8012B491EFBD2FF
:1002C00070470022F6E710B513460A460446194661
:1002D000FFF7F0FF204610BD421C10F8011B00295B
:1002E000FBD1801A7047034611F8012B00F8012B4F
:1002F000002AF9D11846704770477047FFFFFFFF8B
:1003000010B5002200E0521C835C8C5CA34201D13A
:10031000002BF8D1D8B2E1B2401A10BD30B5044676
:100320000020034600E05B1C934203D2E05CCD5CFE
:10033000401BF8D030BD30B505460020034600E034
:100340005B1C934205D2EC5CC85C201A01D1002CE6
:10035000F6D130BD0FB400B58DB010A909900B9047
:1003600000914FF0FF300A9000200C900548069055
:10037000054807906A4609A80F9900F079F90DB071
:100380005DF814FB8D060000AB0600002DE9FF5F51
:100390001D464FF0FF3BD5E9014691465F464FF0C1
:1003A0000008A9697F1C01988847296A8246884706
:1003B0000028F6D1BAF1FF3F0CD024F4C064002E1F
:1003C00019DD600614D5BAF12B0F09D0BAF12D0F43
:1003D0000ED103E0584604B0BDE8F09F44F48064B9
:1003E000A9697F1C01988847761E8246002E02DD8F
:1003F000BAF1300F03D0B9F1000F26D032E0A9696D
:10040000761E44F400747F1C019888478246002EB3
:1004100005DDBAF1780F06D0BAF1580F03D0B9F163
:10042000000F10D01EE0B9F1000F02D0B9F1100F8B
:1004300018D1A969761E24F400747F1C019888479E
:100440008246102002E0082000E00A20814609E0F0
:1004500008FB0908A969761E44F400747F1C019802
:1004600088478246002E05DD4946504600F0EBF8ED
:100470000028EDDAE96901988847A00502D46FF0F9
:100480000100A8E7E00725D1600613D5600502D575
:10049000C8F1000000E0404629680A1D2A6009688A
:1004A000220501D5087015E0220701D5088011E06A
:1004B00008600FE02868011D29600068210502D549
:1004C00080F8008006E0210702D5A0F8008001E056
:1004D000C0F8008038467EE770B5064604F006FD99
:1004E000046805460A220021304600F0EFF82C602F
:1004F00070BD80EA010210B502F00043400022D036
:100500004A001FD0010E01EB1261C0F35600C2F386
:10051000560240F4000042F40002A0FB0220000456
:100520007F39140400D0401C50EA124001D440002E
:10053000491EC2B20C0604EBD010401C4008802AB1
:1005400002D003E0002010BD20F00100002900DAF5
:100550000020184310BD70B521F0004303430CD0B8
:10056000C1F30A550024D5EB040564EB0403D61748
:10057000AD1AB34102DB0020014670BD201841EBEB
:10058000025170BD96230022114600F0E0B820F021
:100590000040C10DC0F3160040F400007F2901DACD
:1005A00000207047962903DCC1F19601C8407047CE
:1005B00096398840704700F0004230F000400AD081
:1005C000C10D01F56071C0F3160042EA0151C20885
:1005D00040071143704700200146704730B50B4675
:1005E000014600202022012409E021FA02F59D4263
:1005F00005D303FA02F5491B04FA02F52844151E37
:10060000A2F10102F1DC30BD202A04DB203A00FA1D
:1006100002F1002070479140C2F1200320FA03F359
:10062000194390407047202A04DB203A21FA02F057
:100630000021704721FA02F3D040C2F1200291401C
:100640000843194670473A2800D2303820F020027B
:10065000412A01D3A2F13700884201D34FF0FF3085
:100660007047000002681144137801601846704713
:10067000D1600449516104491162002111611146A0
:1006800000F07EBA650600006D0B0000426842B1C2
:10069000016811F8013B23B1521EC0E9001218464F
:1006A00070470121C160881E704742685AB1C36813
:1006B000016843B983688B4205D0491E521CC0E9CA
:1006C0000012002070474FF0FF3070472DE9F047CF
:1006D00091460F4680460446002614F8015B2DB172
:1006E00000F040FA0068405DC007F6D12B2D02D023
:1006F0002D2D18D0641E4A463946204600F0D6FB00
:1007000027B13968A14201D1C7F8008071054FF0C7
:1007100002040BD54042002803DD04F0E7FB04602F
:10072000A007BDE8F08746F48066E4E70028F8DA21
:1007300004F0DCFB04606FF00040F2E70029A8BF82
:100740007047401C490008BF20F00100704710B4FA
:10075000B0FA80FC00FA0CF050EA010404BF10BCAF
:10076000704749B1CCF1200421FA04F411FA0CF1DC
:1007700018BF012121430843A3EB0C01CB1D4FEA15
:1007800000614FEA102042BF002010BC704700EB10
:10079000C35010440029A4BF10BC7047401C49003E
:1007A00008BF20F0010010BC70472DE9FE4F8046C5
:1007B00081EA0300C00F0C46009021F0004123F0B5
:1007C0000045B8EB0200A94105D2404621469046BB
:1007D0001C460B46024623F00040104347D0270D2D
:1007E000C7F30A00C3F30A510290401A019040284F
:1007F0006BDAC3F3130040F4801B0098924620B1DB
:100800000023D2EB030A63EB0B0B01985946C0F1AE
:1008100040025046FFF7F8FE06460D465046594640
:10082000019A00F08DF910EB08006141002487EA7D
:10083000115284EAE7731A4340D0009A62B3019AD6
:10084000012A4FEA075215DC001B61EB02014FF051
:10085000004202EA0752CDE90042001C41F5801136
:1008600032462B4600F080FB03B0BDE8F08F4046D7
:100870002146F9E7001B61EB0201001C41F58013E2
:1008800000185B412018A2F5001747EB030140EA6E
:10089000D570B6196D4111E06D084FEA360645EA8C
:1008A000C0754FEA0752001B61EB0201001C41F5C5
:1008B000801149084FEA30000019514132462B4659
:1008C00003B0BDE8F04F00F040BB009801224000AB
:1008D0000023D0EB020263EBE073009821464FEA5D
:1008E000E074B8EB000061EB0401E9E783F000433A
:1008F0005BE781F0004158E72DE9FE4F81EA0304F0
:1009000004F0004421F0004100944FF0000B23F06C
:10091000004350EA01045ED052EA03045BD0C3F303
:100920000A54C1F30A552C44A4F2F3340194A0FBF9
:100930000254C1F3130141F48011C3F3130343F4D0
:10094000801301FB024400FB034E840A970A44EA29
:10095000815447EA8357A4FB076802958D0A05FB7B
:1009600007854FEA932C04FB0C542705029D4FEAA0
:10097000065847EA1637B5EB08056EEB070C870EED
:10098000920E47EA811742EA8312A7FB0201B6EBF7
:100990000B0164EB00042B0D43EA0C335E1844EBAF
:1009A0001C50DA465146E7FB0201C5F313044FEA37
:1009B0000B3343EA14534FEA0432019C43EA060323
:1009C000A4F10C040294009CCDE900B400F0CCFA30
:1009D00003B0BDE8F08F00200146F9E72DE9F04DA6
:1009E00081EA030404F0004B21F0004514464FF067
:1009F000000A23F0004150EA050220D054EA010227
:100A00001DD0C5F30A570246C5F31303C1F3130003
:100A1000C1F30A5640F4801543F48013A7EB06088F
:100A2000101BD64608F2FD3873EB050002D308F11F
:100A3000010801E092185B41B8F1000F03DA0020D1
:100A40000146BDE8F08D00204FF480110646844633
:100A50000EE0171B73EB050705D3121B63EB0503B1
:100A600006434CEA010C49084FEA300092185B41FA
:100A700050EA0107EDD152EA030012D082EA0400E5
:100A800083EA0501084305D0101BAB4106D20122C1
:100A9000002306E000224FF0004302E06FF0010265
:100AA00053101AEB06004CEB085110EB0A0041EB17
:100AB0000B01BDE8F04D00F048BAC1F30A52C1F392
:100AC000130140F2FF3341F480119A4202DA002010
:100AD0000146704740F233439A42A2F2334202DCAD
:100AE0005242FFF7A0BDFFF78FBD000030B5041ED6
:100AF00071F1000404DB4FF00044404264EB01015B
:100B0000141E73F1000405DB1C464FF000435242F3
:100B100063EB0403994208BF904230BD064C074D79
:100B200006E0E06840F0010394E8070098471034BD
:100B3000AC42F6D3FFF7CEFA085A0100485A01003A
:100B4000202A06DBCB17203A41FA02F043EAE07391
:100B500006E041FA02F3D040C2F12002914008437E
:100B600019467047004870476855010010B50446A3
:100B7000FFF7F8FF0068005D00F0010010BD000005
:100B80002DE9F34F8BB04FF0000801F10C000C463B
:100B90004FF0010B46460DF1080A019062690121F0
:100BA00001989047051E2DD0252D2CD0216A88470D
:100BB000C0B16269012101989047216A88470028E5
:100BC000F7D1411E62690198904700E0761CA16947
:100BD0000B988847216A88470028F7D1E1690B986C
:100BE0008847DBE7A1690B9888470746A84201D1EF
:100BF000761CD3E7E1690B9888477F1C02D1B8F1D6
:100C0000000F6FD046E1002762693D4639460198E2
:100C100090472A2804D16269012101989047012553
:100C2000DFF884926269012101989047A0F13001B8
:100C30000A290AD24F45E5DC07EB870100EB4107A3
:100C4000303FDFD445F01005ECE7E90601D46FF042
:100C500000476C280AD04C2814D0682815D06A2880
:100C60000DD074281CD07A281AD01DE062690121A9
:100C7000019890476C2802D045F0040514E045F037
:100C800002050DE045F020050AE0626901210198A6
:100C90009047682802D045F0080505E045F4006556
:100CA0006269012101989047C4E9015765283DD048
:100CB00019DC58287AD00CDC452837D004DC2528EC
:100CC00026D0412831D131E046282FD047282CD1D9
:100CD0002CE05B2877D0612828D063287CD064285A
:100CE00023D15AE0D0E06F2848D008DC66281DD018
:100CF00067281BD0692821D06E2816D127E07028DC
:100D000045D0732868D0752847D078280DD14DE09C
:100D1000A1690B988847054625283FF469AFE1692A
:100D20000B9888476D1C3FF46AAFB3E023466A46D0
:100D30006FF001000B99AFF300809EE045F040009A
:100D40006060A80723464FF0000236D43EE0E80773
:100D50007FF447AF2068011D21600068290501D597
:100D600006701BE7290701D5068017E7A90703D5F9
:100D7000F117C0E9006111E706600FE745F0400098
:100D80006060A80723464FF0080216D41EE040F624
:100D90000E0125EA0100606016E045F04000606049
:100DA000A80723464FF00A0207D40FE045F04000A1
:100DB0006060A80708D5234610226FF001000B9948
:100DC000AFF3008059E007E0234610226FF00100E6
:100DD0000B99FFF7DBFA50E04FF000094F464B4606
:100DE000632802D05B2806D040E0E80601D4012049
:100DF000A06001273AE062690121019890475E28CE
:100E000005D14FF00109626949460198904721696F
:100E100039B900210A46534643F82120491C0829C4
:100E2000FADBB0B3216969B9C11700EBD162531184
:100E30000AEB830122F01F02821A01200B68904006
:100E400003430B6062690121019890475D28E8D156
:100E5000B9F1000F09D00020514651F82020D243AB
:100E600041F82020401C0828F7DB02AB22460097FF
:100E70006FF001000B99AFF3008000280CDA401CE2
:100E800008D1BBF1000F05D04FF0FF300DB0BDE829
:100E9000F08FFFE74046F9E7E90701D108F10108C3
:100EA00006444FF0000B79E6CCCCCC0C2DE9F05F7A
:100EB00082460078002715468B460AF10104B946A0
:100EC000302801D09DB113E014F8010B01277828D8
:100ED00003D0582801D045B10AE00DB1102D07D13B
:100EE0000027102514F8010B02E0082500E00A2570
:100EF0000026B0460EE005FB080005FB06F10127C1
:100F000001EB10461FFA80F8B6F5803F00D3B946D2
:100F100014F8010B2946FFF796FB0028EBDABBF12A
:100F2000000F05D00FB1641E00E05446CBF800401E
:100F3000B9F1000F06D003F0D9FF02210160C81EED
:100F4000BDE8F09F48EA0640FAE710B5141E73F1B9
:100F5000000408DA401C41F1000192185B411A4379
:100F600001D120F0010010BD2DE9F04D92469B46C5
:100F700011B1B1FA81F202E0B0FA80F2203290466B
:100F8000FFF742FB04460F4640EA0A0041EA0B0124
:100F900053465A46084313D0114653EA010019D06C
:100FA000C8F140025046FFF73EFB05460E4650464C
:100FB00059464246FFF728FB084305D0012004E0CC
:100FC00020463946BDE8F08D0020054346EAE0762C
:100FD0002C4337430A986305E40AA0EB080000227B
:100FE000FD0A44EA47540A3002D500200146E9E7E9
:100FF000010510196941DDE9084500196941BDE89D
:10100000F04DA2E770B58C1810F8015B15F00703DE
:1010100001D110F8013B2A1106D110F8012B03E091
:1010200010F8016B01F8016B5B1EF9D12B0705D499
:101030000023521E0DD401F8013BFAE710F8013BE2
:10104000CB1A921C03E013F8015B01F8015B521EFE
:10105000F9D5A142D8D3002070BD10B500F1280108
:1010600051E8002F12B9BFF32F8F04E0531E41E85F
:10107000003404B1F4E782B12C3001210AE0821C73
:10108000D2E84F3FC2E8441F04B1F9E71A0608BF8F
:1010900010BD083000680028F1D1002010BD10B547
:1010A00084465CF8303F8BB1CA784FF0000E05E003
:1010B0001C46DB7893420ED26368A646002BF7D11C
:1010C0000022C1E9012E00F12C0208E00022C1E952
:1010D0000122C16209E0C1E9014E04F10802116078
:1010E000BEF1000F18BF0EF1040CCCF80010283030
:1010F00050E8001F4A1C40E8002303B1F8E710BD88
:10110000D1E90123002A0EBFC36293608B68191DC9
:10111000002B08BF00F130010A60704701480068E9
:10112000704700BF10E000E007480178012905D1B1
:101130000021017005484FF080610160044801689A
:1011400041F0010101607047EA1B082004ED00E056
:1011500010E000E001480068704700BF981C0010D4
:10116000024801684068081A704700BF14E000E0B8
:101170004FF0FF30704700000148006801307047B1
:1011800014E000E002480068C0F30040704700BF70
:1011900010E000E040B10B490968B1FBF0F0411EDE
:1011A0000020B0EB116F02D04FF0FF307047064ABD
:1011B000FF231370054A06231360516004499060B1
:1011C00008707047981C001023ED00E010E000E06C
:1011D000EA1B082010B5930712D400F12803D007AA
:1011E00018D153E8000F084203D1BFF32F8F00201E
:1011F00005E020EA010243E8002404B1F1E710BD54
:10120000806AD20700EA010315D1002B18BF10BD78
:10121000002010BD53E8000F00EA01028A4203D00B
:10122000BFF32F8F002005E020EA010243E80024ED
:1012300004B1EFE710BD8B4218BF002010BD0000C5
:1012400080B5124A4FF0000E02F1440C624606E0EF
:101250001A6991420BD3891A03F10C029E46136856
:10126000002BF5D10022C0E902E2016106E0C0E9ED
:1012700002E3016198601A69511A1961BEF1000F09
:1012800018BF0EF10C0CCCF8000080BDC81C00107B
:10129000C16829B102690B691A440A6182688A60CF
:1012A0008068044A00F10C03002808BF02F14403DF
:1012B00019607047C81C0010EFF3058129B9EFF3DE
:1012C000108111B9EFF3118111B16FF00500704772
:1012D000DFF804C000DF7047A11F0000EFF30580B6
:1012E00028B9EFF3108010B9EFF3118008B100F0C6
:1012F00061BEDFF808C000DF704700BFB51F000007
:10130000EFF3058028B9EFF3108010B9EFF31180E7
:1013100008B1FFF71FBFDFF808C000DF704700BF4C
:10132000DD1F000080B5FEF7E7FFEFF3058028B969
:10133000EFF3108010B9EFF3118010B16FF00500DA
:1013400080BDDFF808C000DF80BD00BFE11F0000E6
:10135000EFF3058028B9EFF3108010B9EFF3118097
:1013600010B16FF005007047DFF804C000DF704770
:1013700035210000F8B50546EFF3058014460E460A
:1013800028B9EFF3108010B9EFF31180F0B16FF0CE
:1013900003000DB303BBFEB12978FA291CD12846FE
:1013A000FFF75BFE78B16A6A074600F10C01304630
:1013B000FEF76EFF0CB1F87820703846FD6000F043
:1013C00047FA002008E06FF0020005E02846DFF849
:1013D0000CC03146224600DF01B0F0BDBD21000047
:1013E000EFF305832BB9EFF3108313B9EFF31183F8
:1013F0000BB100207047DFF808C000DF704700BF66
:101400009D2200002DE9F0410646EFF3058090464D
:101410000D4628B9EFF3108010B9EFF3118018B31F
:101420006FF00307EEB1E3B9DDB13078FA2818D1D7
:1014300006F10C0000F0DCF888B1726A04460C304A
:101440002946FEF725FF0027F920C4E9015684F854
:101450000380A7702070204600F0FAF901E06FF0D9
:1014600002073846BDE8F0813046DFF80CC0294657
:10147000424600DFBDE8F081D1230000EFF3058292
:101480002AB9EFF3108212B9EFF3118212B16FF0A3
:1014900005007047DFF804C000DF704791240000AA
:1014A000EFF3058129B9EFF3108111B9EFF3118141
:1014B00009B100207047DFF808C000DF704700BFA7
:1014C00021250000EFF3058129B9EFF3108111B94F
:1014D000EFF3118111B16FF005007047DFF804C020
:1014E00000DF70478D250000B0B50023D0B3C9B32D
:1014F000032A37D886460F315EF8084F21F0070CD3
:10150000DEF804102346A4EB0E0421F00305641B4F
:10151000644505D21C689E46002CF1D1002321E0D1
:10152000D0E9004363444360204450F8044C9C429B
:101530003EBF08384360DEF8041069B1DEF80000F1
:1015400021F0030141F80E004CEA020071444860AA
:10155000CEF800108E4603E04CEA0200CEF80400FC
:101560000EF108031846B0BD80B5002218B311B3C0
:1015700000F10803A1F1080C4FF0000E634506D0FE
:101580001A461B689646002BF8D1002213E051F84A
:10159000043C4268BEF1000F23F00303A2EB0302F8
:1015A00042604FF0010219BFDCF80000CEF80000E5
:1015B000002041F8040C104680BD08B1420702D05B
:1015C00000221046704700221829FAD311F00703B1
:1015D000F7D11022C0E900120144A1F10803836091
:1015E000002341F8083C81684A600122C360E8E7B3
:1015F00010B5002817D0014600F1140252E8000F80
:1016000010B9BFF32F8F04E0036842E8003404B13F
:10161000F4E740B1043151E8002F531C41E8003495
:1016200004B1F8E710BD002010BD00281FD0C2682B
:101630008A421CD802698A4219D9B0B500F1140255
:1016400013680B60BFF35F8F52E8003F0C689C4249
:10165000F6D142E8001505B1F2E7043050E8001F6A
:101660004A1E40E8002303B1F8E70020B0BD6FF048
:101670000300704784460020BCF1000F18BF00290A
:101680001AD0CAB1C3B180B54FF0000E02FB0130D1
:10169000CCE9001ECCE90223CCE90403C1F101002E
:1016A000BDE8804003E09918013019600B4600281E
:1016B000F9D10020186001207047F8B50446807801
:1016C00068B3E56821462846FFF71AFD002005F1BA
:1016D0000C06214620703046FFF7A7FFA868E8B146
:1016E0003046FFF785FFC8B10446284600F0F8F9F8
:1016F000002100220646002700F0ACFA304600F038
:101700004BFA81686A6A064604F10C00FEF7C0FDD8
:10171000F920A7702070F068E07025E0F8BDA5689A
:10172000A86808B3407883281ED1284600F0D8F96D
:10173000002100220646002700F08CFA304600F017
:101740002BFA064680686A6A04F10C01FEF7A0FDD8
:10175000F06808B1E1780170277005F10C002146AE
:10176000BDE8F840FFF761BF28462146BDE8F840D4
:10177000FFF795BC2DE9F041044600274FF0010822
:1017800019E025466469E878000714D52F76A86823
:1017900088B1284600F0A4F900210022064600F096
:1017A00059FAC5E90367F06A0028686100D005614D
:1017B000F56285F81880002CE3D1BDE8F0810000C7
:1017C00070B5224C04F1560504F15A0628E0D6E81B
:1017D0005F1F4A1C904200D80022C6E8532F03B175
:1017E000F5E788B2E16D51F82000002828D0017893
:1017F000F139082914D8DFE801F005130813130B99
:101800000E131100216E88470AE0616E884707E0D9
:10181000A16E884704E0E16E884701E0216F8847A8
:10182000B4F85400D5E85F1F11B9BFF32F8F04E05F
:101830004A1EC5E8532F03B1F4E709047FF4C7AF8C
:101840000020BDE8704000F0F1B800BFC81C0010D7
:1018500070B50146194800F15603B0F85420D3E89A
:101860005F4FA24202D8BFF32F8F04E0651CC3E88C
:10187000565F06B1F3E7A3B293421AD200F15803C0
:10188000D3E85F4F651CAA4200D80025C3E8565F25
:1018900006B1F5E7A2B2C36D43F82210417A0029E0
:1018A00019BF0121817206484FF0805108BF0160C5
:1018B00070BD0220BDE870400AF092BCC81C001048
:1018C00004ED00E010B58168B1B100F10C01D1E880
:1018D0005F2F12B9BFF32F8F04E0531EC1E8543FAE
:1018E00004B1F4E7110407D000F0FAF80021002257
:1018F000BDE8104000F0AEB910BD000001214170FC
:101900000B4990F920C01C310A46896841B191F910
:1019100020306345F8DCC0E902120C31906004E02D
:101920000021C0E9021202F108010860704700BFFF
:10193000C81C001010B54A1C11D01F4A002402F127
:101940002C0C624603E0891A03F110021C4613684E
:10195000E3B1DA699142F6D24FF0010E18E0164970
:10196000002301F1300421461A460B6803F11001EF
:10197000002BF9D14FF0FF31002AC1614FF0000177
:10198000C0E9041216D002F1100413E04FF0000E6B
:10199000002CC0E90434C16118BF04F1100CCCF86C
:1019A0000000BEF1000F08BF10BDDA6903F1140496
:1019B000511AD961206010BDC81C0010C2690169AC
:1019C000531C0AD021B1CB691A44CA6142694A61E9
:1019D00042693AB90748C162704709B142694A6130
:1019E00042691AB1116100214161704701480163E8
:1019F000704700BFC81C0010B0B50B4DEC6A1CB19D
:101A0000E0690138E06100D0B0BD204600F087F801
:101A1000204600F0B7F8246924B1E0690028F4D02A
:101A200000206061EC62B0BDC81C0010B0B5054676
:101A30001448002D4469017A0CD0022905D194F98B
:101A4000200095F92010814212DC2846BDE8B04004
:101A500000F098B8022913D1456A8DB194F920009D
:101A600095F920108142D8BFB0BD284600F057F844
:101A70002046FFF743FF2846BDE8B04000F0C4B859
:101A8000B0BD00BFC81C001010B504460020208067
:101A9000A07881070DD5C00605D41048216B406F92
:101AA000FFF762FD05E00D48216BD0F88400FFF7D9
:101AB000BCFDA078C00708BF10BD0849D1F8880058
:101AC00020B12146BDE81040FFF7AFBDD1F880003E
:101AD0002146BDE81040FFF747BD00BFC81C0010FD
:101AE000014680688268002A8A6000D0D1600021A7
:101AF000C160704791F920C00246806840B190F9FA
:101B000020306345F8DAC1E902020C30916004E04C
:101B10000020C1E9020202F1080001607047C168BB
:101B200031B182688A60826802B1D1600021C160EF
:101B30007047B0B50446054603E02878F12803D184
:101B4000ED68002DF9D1B0BD2046FFF7E8FF28462B
:101B50002146BDE8B040FFF7CDBF10B50446407840
:101B6000332818BF10BD94F82320616A2046FFF780
:101B700031FB30B1014620460022BDE8104000F0A4
:101B800069B810BD01460120487002481C30FFF7BB
:101B9000B1BF00BFC81C0010806B20307047000030
:101BA0000748416939B1086B8A6B824204D90068E1
:101BB000044A904200D1704701200AF011BB00BFD7
:101BC000C81C0010A52E5AE270B50B4C0B48002122
:101BD000A26D666E00F078FE094D002EA86209D055
:101BE000E26D0848002100F06FFEA864002818BFCD
:101BF000012070BD012070BD5C590100E3C10000EF
:101C0000C81C0010E91C00000221417001498861D4
:101C1000FFF7C6BFC81C001010B50D4C02460020CF
:101C2000237A022B12D1636A83B160694270FFF795
:101C300081FE606A81680029616202D004F11C02A1
:101C4000CA600021C160FFF7DFFF012010BD00BFA7
:101C5000C81C0010B0B50446806B154601622046D2
:101C6000FFF7ACFE20461DB1BDE8B040FFF7DEBE79
:101C7000BDE8B040FFF786BFB0B5FFF74FFA194D8A
:101C8000E968286D01310028E96000D08047FFF73E
:101C9000B3FE0020FFF7CAFE296C11B3AA69A86B36
:101CA00090421CBFC5E90E21B0BDE96B11B10139ED
:101CB000E96316D1297A022913D16C6A8CB190F8A4
:101CC000200094F8201081420BD12046FFF727FF17
:101CD000A86BFFF757FF2046FFF796FF286CC5E972
:101CE0000E40B0BDC81C001082B00B480821D0E9DE
:101CF0001820FFF775FB094D09496C46C5E913012A
:101D0000214600224FF0FF33FFF734FB10B9DDE925
:101D100000108847E86CF3E75C590100C81C00100C
:101D2000251D000070B5144D6C6C1CB32069012694
:101D3000013820611CE02069E0B9E06808B1A168C1
:101D40008160686404F1180100220023E86CFFF749
:101D500059FB18B1032021460AF042FAE078012825
:101D600004D161692046FFF76BFA00E066706C6C85
:101D7000002CE0D170BD00BFC81C0010EFF305823D
:101D80002AB9EFF3108212B9EFF31182CAB16FF0E2
:101D90000302A0B199B90178F62910D10C30D0E82E
:101DA0005F1F11B9BFF32F8F04E04A1EC0E8532F05
:101DB00003B1F4E70022080408BF6FF002021046E6
:101DC0007047DFF808C000DF704700BF45260000FD
:101DD000EFF305832BB9EFF3108313B9EFF31183FE
:101DE0000BB100207047DFF808C000DF704700BF6C
:101DF0009D260000EFF3058129B9EFF3108111B999
:101E0000EFF3118109B3B0B5E0B10178F62919D12A
:101E100000F10C01C289D1E85F3F9A4202D8BFF3BA
:101E20002F8F04E05C1CC1E8554F05B1F3E7C28970
:101E300099B2914224BF6FF00200B0BDFFF708FDD8
:101E40000020B0BD6FF00300B0BDDFF808C000DFB8
:101E5000704700BF1D270000DFF804C000DFFEE769
:101E600071270000EFF3058129B9EFF3108111B953
:101E7000EFF3118111B16FF005007047DFF804C076
:101E800000DF7047E1270000EFF305822AB9EFF386
:101E9000108212B9EFF31182E2B1B0B56FF0030412
:101EA000B0B1002914DB0278F12A11D14278042A5A
:101EB00002D16FF002040BE000F1280252E8003F6B
:101EC00043EA010442E8004505B1F7E7FFF7C0FC2B
:101ED0002046B0BDDFF804C000DF704715280000C1
:101EE000EFF305832BB9EFF3108313B9EFF31183ED
:101EF00013B16FF005007047DFF804C000DF7047D2
:101F00007D280000EFF305832BB9EFF3108313B99D
:101F1000EFF311830BB100207047DFF808C000DF3A
:101F2000704700BFC9280000EFF3058028B9EFF320
:101F3000108010B9EFF3118010B16FF005007047F9
:101F4000DFF804C000DF7047A52A0000EFF3058C1E
:101F5000BCF1000F09D1EFF3108CBCF1000F04D1DC
:101F6000EFF3118CBCF1000F01D000207047DFF8B7
:101F700008C000DF704700BFDD2A0000EFF30582D4
:101F80002AB9EFF3108212B9EFF3118212B16FF098
:101F900005007047DFF804C000DF7047592B0000D0
:101FA00030B180B501461320FFF736FEBDE8804012
:101FB00000207047B0B50848C568FFF7D1F804465F
:101FC000FFF7E0F818B10135FFF7CAF80446FFF74C
:101FD000D3F800FB0540B0BDC81C0010FFF7BAB82D
:101FE0002DE9F843504F387A012800F095800028F9
:101FF00040F0948007F108009C21FEF762F9DFF8B9
:102000002C81B8F81000A7F85400D8E90202D8E9EA
:102010000B41FA6538642046FFF7CFFA08B1C7F8DC
:102020008040D8E90541DFF80891D8E907562046F5
:10203000C847D7F880100028284618BF214679677E
:102040003146C847D7F88010002818BF2946B9671D
:10205000D8E909412046C847D7F88010002818BFA2
:102060002146D8F83440F9673CB12168D4E902230D
:102070002046FFF7FFFAC7F88440D8F838403CB153
:102080002168D4E902232046FFF7F4FAC7F8884014
:10209000D8F83C403CB12168D4E902232046FFF740
:1020A000E9FAC7F88C40D8F840403CB12168D4E93F
:1020B00002232046FFF7DEFAC7F89040D8F84440E4
:1020C0003CB12168D4E902232046FFF7D3FAC7F8D0
:1020D0009440D8F848403CB12168D4E90223204616
:1020E000FFF7C8FAC7F89840D8F84C403CB12168CF
:1020F000D4E902232046FFF7BDFAC7F89C40D8F880
:1021000050403CB12168D4E902232046FFF7B2FADF
:10211000C7F8A04001203872002001E04FF0FF30E6
:1021200001B0BDE8F08300BFC81C00105C5901007D
:10213000BB150000B0B51D4C207A01281CD1FFF75B
:1021400043FDC8B11A48FF211A4D8175817D02688F
:1021500081F0FF01C2F30222B1FA81F1C1F1200145
:102160008A4228BF511CFE2202FA01F1C17468683C
:102170001149FFF70FF810B14FF0FF30B0BDFEF777
:10218000F7FF2061FEF7D0FF04F11C00FFF7A8FC69
:10219000FFF73AFD2878C0070CBF0320022080F328
:1021A0001488022020720020B0BD00BFC81C00109F
:1021B0000CED00E05C590100810100002DE9F843BD
:1021C00000284CD00F466FF00305002949D0044683
:1021D0000078FA2845D1204699469046FEF73DFF03
:1021E000002842D0064620463146FEF789FF626A43
:1021F00006F10C013846FEF74BF8B8F1000F1CBF92
:10220000F07888F8000004F10C07002531463846C4
:102210003570FFF70AFAA06818B33846FFF7E8F9F7
:102220000025F0B106462046FFF75AFC00210122A6
:102230000746FFF70FFD3846FFF7AEFC8168626A7C
:10224000074606F10C00FEF723F8F920B570314679
:102250003070F868F0702046FEF721FF01E06FF063
:102260000305284601B0BDE8F083B9F1000F10D096
:1022700083204946FFF7D0FC40B10748416920461A
:10228000FFF738FCEFF30980C0E902786FF0010531
:10229000E7E76FF00205E4E7C81C00102DE9F84FEE
:1022A000002770B10D4661B105F10F010446B0FA87
:1022B00080F021F00306B6FA86F10844202804D203
:1022C0000027384601B0BDE8F08F06FB04F872B174
:1022D000D2F808A01368D2E90490BAF1000F11D027
:1022E0005FEA8A71ECD1D1683429E9D30DE000238B
:1022F0004FF0000934490093D1F8A00078B1FFF7FE
:1023000077F912E0D1680029DAD1B9F1000F2FD0A6
:1023100000274045D5D319F003002BD0D1E7D1F8E1
:10232000800034210122FFF7DFF882464FF0010BD5
:10233000B9F1000F10D1BAF1000F0DD0224F414674
:102340000022F86FFFF7D0F8814638B14846414681
:10235000FDF7B7FF57461AE057461AE0BBF1000FEA
:1023600014D0D7F8A00060B15146FFF75EF90DE038
:102370000028A5D1BAF1000FBCD000934FF0000B9C
:10238000D6E7D7F880005146FFF7EEF800270BF1AB
:10239000020B002F3FF495AF002032464B46C7E9B1
:1023A0000950C7E90B000099C7E90110FA2087F826
:1023B00002B02146387007F10C00FFF75BF90248C4
:1023C000024901677DE700BFC81C0010BB16000072
:1023D0002DE9F84338B30E466FF00307002951D0BA
:1023E00005460078FA284DD1A86899469046E8B18C
:1023F000407883281AD12846FFF772FB002101227A
:1024000004460027FFF726FC2046FFF7C5FB0446DD
:1024100080686A6A3146FDF73BFFE06890B380F858
:10242000008000272EE06FF003072BE005F10C0081
:10243000FFF7DEF880B16A6A04460C303146FDF7DA
:1024400027FF0027F92084F803802146A770207019
:102450002846FEF724FE15E0B9F1000F10D09320B6
:102460004946FFF7D9FB40B1084841692846FFF7C4
:1024700041FBEFF30980C0E902686FF0010701E05A
:102480006FF00207384601B0BDE8F083C81C0010A9
:1024900070B50446214845694DB32CB32078F52822
:1024A00022D1207E30B30E46E178CA0702D0E2681E
:1024B000AA422CD07EB388070AD5E06895F920108F
:1024C00090F920208A4203DA80F82010FFF731FBD0
:1024D00053203146FFF7A0FB18B120462946FFF7ED
:1024E00009FB6FF0010070BD6FF0030070BD4FF08D
:1024F000FF3070BD0020C4E90350E86A0028606125
:1025000000D00461EC6201202076002070BDFF281D
:1025100001D00130F8E76FF0020070BDC81C001058
:1025200070B558B1D0E90065846884B1A10711D1B4
:10253000C16800201C2938BF70BD16E000250026A8
:102540001149D1F8940038B1FFF752F80AE0C06899
:102550000028F5D0002070BDD1F880001C21012298
:10256000FEF7C2FF044658B101206660E570A07016
:10257000F5201121207004F10800FDF7A2FE00E013
:102580000024204670BD00BFC81C001070B5044672
:102590002B48406970B154B12178F52907D1217ECB
:1025A00011B1E268824209D06FF0020404E06FF0DA
:1025B000030401E04FF0FF34204670BD013921765D
:1025C000090601D00024F7E7616909B122690A61AF
:1025D00000F12C0523692A46002B18BF03F11402D1
:1025E0001160E178890711D590F8211009E093680E
:1025F0002BB193F920304DB2AB42C8BF194602F15E
:1026000014052A68002AF2D180F82010A06890B141
:102610002046FFF765FA0021002205460026FFF755
:1026200019FBC4E90356E86A0028606100D0046120
:102630000120EC62207600200024FFF7F7F9BBE7C9
:10264000C81C0010B0B508B304460078F6281DD1A8
:1026500004F10C00D0E85F2F12B9BFF32F8F04E014
:10266000531EC0E8553F05B1F4E710041CBF00201D
:10267000B0BD71B16320FFF7CFFA20B106484169C0
:102680002046FFF737FA6FF00100B0BD6FF003008E
:10269000B0BD6FF00200B0BDC81C001070B505469B
:1026A00001384FF6FE730C460021984298BFAC42A9
:1026B00001D9084670BD4AB19068166870B18107AB
:1026C0000FD1D2680021102AF3D314E0002611495B
:1026D000D1F8980038B1FEF78BFF0AE0D0680028E7
:1026E000F5D00021E5E7D1F8800010210122FEF7A6
:1026F000FBFE60B101210022C5818481C0E9016235
:102700008170F621044A017002498A6600E00020C7
:102710000146CEE7C81C0010C5180000B0B560B176
:102720000178F62909D1816859B1FFF7D9F900215B
:1027300001220024FFF78EFA01E06FF00304204627
:10274000B0BD00F10C01C289D1E85F3F9A4202D8C6
:10275000BFF32F8F04E05C1CC1E8554F05B1F3E7D0
:10276000C28999B26FF00200914238BF0020B0BD1B
:1027700070B51A4D287A02282ED1686A002808BF41
:1027800070BD6C69E06AFEF7F5FFA06918B1002121
:102790000022FFF75FFAEFF30980A063686A81689F
:1027A0000029696202D005F11C02CA600026C660D9
:1027B000FFF72AFA6E61E078C00704D12046BDE831
:1027C0007040FFF761B90420E6606070686B002814
:1027D000A06000D0C4606C6370BD00BFC81C001056
:1027E00001460B48406968B100290EDB10B500F1C5
:1027F000280252E8000F20EA010342E8003404B145
:10280000F7E710BD4FF0FF3070476FF003007047DF
:10281000C81C0010B0B56FF0030460B300292ADBB8
:1028200005460078F12826D16878042802D16FF097
:10283000020420E005F1280050E8002F42EA0104DC
:1028400040E8004303B1F7E76878332813D195F8DF
:102850002320696A2846FEF7BDFC60B1014695F861
:10286000230001220C4680075CBF686A21EA00044D
:102870002846FFF7EFF92046B0BD0000F8B5054641
:1028800010484769A7B1002D15DB0E46144638469F
:1028900029463246FEF79EFC90B97CB13320214692
:1028A00087F823607D62FFF7B7F96FF0010007E05A
:1028B0004FF0FF3004E06FF0030001E06FF0020022
:1028C00001B0F0BDC81C00102DE9FE4F10B38046CA
:1028D0006AB102F1100A9AE88006D2E900539668BC
:1028E000B6B1B00716D1D068442813D317E04FF023
:1028F000180A002300274FF000090025644A0293BC
:10290000D2F88800CDE90015C8B1FEF771FE1CE0D1
:10291000D06820B10024204603B0BDE8F08F37B165
:102920000024B9F1000FF6D017F00700F3D1BAF187
:10293000000F38D0AAF101003728EBD835E0D2F8E3
:10294000800044210122FEF7CFFD06464FF0010B27
:1029500067B95EB1B9F1000F0AD04D48494600226F
:10296000406FFEF7C1FD98B107460FE034463EE0E8
:1029700047484849D0F88400D1F854900028ECD05A
:10298000FEF736FE20B107460BF1100B34462CE063
:10299000BBF1000F1CD03E49D1F88800E0B13146B0
:1029A000FEF743FE1DE04FF0180AB9F1000F06D004
:1029B0000024B9F1480FAED319F00700ABD1002EB7
:1029C0003FF49CAFCDE9001502934FF0000BBFE739
:1029D0004FF0000B002707E0D1F880003146FEF7EA
:1029E000C3FD00274FF0010B00244BF0020B002C1D
:1029F0003FF491AF0198182160600298E07040F2B6
:102A0000F11084F802B0208004F10800FDF759FCB1
:102A100007EB0900C4E90C79FD214038C4E90E0830
:102A2000002084F82F00C4F82B00C4F82700C4F855
:102A3000230084F82210184984F821A084F820A0EB
:102A4000009E39601349097849070AD511213A1DBA
:102A50004FF0CC33A1EB990101E008C2013100290C
:102A6000FBD1A16B002202E041F8220001320D2AC5
:102A7000FAD10A4A4FF08070C1E90D28C8630E628E
:102A80000348074901662046FEF7D0FF43E700BF31
:102A9000C81C00105C590100A52E5AE2591E000006
:102AA0005B1B0000B0B50C48017A022911D1446AC1
:102AB0007CB1456994F8201095F82000814208D136
:102AC0002046FFF72CF82846FFF75CF82046FFF772
:102AD0009BF80020B0BD00BFC81C0010F8B50E4622
:102AE000002198B3012E31D8144605464BB19868A1
:102AF0001F6870B181070FD1DA680021202A15D232
:102B000024E000271349D1F88C0038B1FEF770FD9E
:102B10000AE0D8680028F5D0002117E0D1F880003D
:102B200020210122FEF7E0FC70B10121C670817006
:102B30004FF4F97101800021C0E90171C0E903116E
:102B4000C0E90515C46100E000200146084601B057
:102B5000F0BD00BFC81C0010B0B578B105460C46EA
:102B60006FF00300C1B12978F22918BFB0BD6878B1
:102B7000022806D12846FEF78BFB08E06FF0030021
:102B8000B0BD0748006D40B102206C6168702846F6
:102B90002146FEF755FB0020B0BD6FF00200B0BD2E
:102BA000C81C001001004FF0000001D104F02ABE43
:102BB000704700001CB50CA10D4DD1E900010024A7
:102BC000CDE90001012028706E46305D00F04AFD1D
:102BD000641C082C00D30024C820FEF76DFB287865
:102BE0000028F9D0F1E700000103060C080C0603E9
:102BF000C0EC072001218140044800BF50E8002FAD
:102C00008A4340E80023002BF8D17047D4ED072019
:102C10002DE9F0410D46014648480079800703D46C
:102C20004FF0FF30BDE8F0816FF003004FF0A0449B
:102C3000012924D0022966D003296FD00429F1D1BB
:102C4000E8070BD0D4F80061D4F8000120F00100AF
:102C5000C4F8000104F032FCC4F80061A8070CD5E8
:102C6000D4F80051D4F8000120F00200C4F80001AB
:102C700004F5807404F04EFC25600020D2E7616802
:102C800021F00102D4F8001121F48063A1682668C4
:102C900021F01501A76926F0100627F4807715F0BA
:102CA000030C04D0BCF1010FBCD147F4807705F0D0
:102CB000040CBCF1040F05D142F0010243F480631F
:102CC00041F015015FEAC56C01D546F0100615F01C
:102CD000600FA7D1A7616260C4F80031A1602660CF
:102CE000D4F80002290620F0070001D540F00200C8
:102CF000E90501D540F00400A90501D540F0070021
:102D0000C4F80002B9E7D4F8000120F002000DB1C8
:102D100040F00200C4F80001AFE7FFE7D4F800017B
:102D200020F00101206820F001001DB141F00101F7
:102D300040F00100C4F8001120609EE798EE0720E3
:102D40006FF00300704700002DE9F0470024354E76
:102D5000DFF8D4900127306807FA04F528425CD0E8
:102D60003248716800EB4410294244D0B56004EB4E
:102D7000840309EB83054A46D5E9021C8C4533D010
:102D8000A1EB0C01B1F5805F01D340F6FF718C44DB
:102D9000C5F80CC0D0F80CC05FEA4C1C0ED552F838
:102DA00023C0C0F800C052F823C0D0F80C80C8F38C
:102DB000814801FA08F8C44449F823C0C2681201E6
:102DC00009D56A6842606B68C268C2F3415201FA71
:102DD00002F21A446A60C26861F30B02C2600169C0
:102DE00041F00101016118E0E0B2FFF703FF29693A
:102DF00099B1012010E0F16829420ED00021016153
:102E0000C160E0B2FFF7F6FE356104EB840109EB27
:102E10008100016909B102208847641C082C9AD3FB
:102E2000BDE8F087004000500C1908200041005018
:102E300000F0BCFB04F0BEFC20A1234802F028F8FF
:102E4000214822A11530044602F022F81E4802F063
:102E5000BDFC4FF47A70FEF72FFA10231E4A0321AF
:102E6000180105F0DDFB1C4A1CA1103202F12800FC
:102E700002F00EF81CA1144802F00AF8164A2823A2
:102E800010321549002005F058FC024619A12046D1
:102E900001F0FEFF0C4802F099FC4FF0FF3422468F
:102EA00000210120FFF71CF8074802F08FFC04F016
:102EB00081FC054802F08AFCF1E70000537461725E
:102EC00074696E672E2E2E00E4EC0720202020204F
:102ED000202020202020200000EE07204950343AF6
:102EE000252D3136730000004950206164647265FD
:102EF00073733A0025730000104AD2F888004FF42B
:102F00008071C3030E48006806D552F8943F23F43D
:102F1000803342F8083909E0D2F88430DB030BD55E
:102F200052F8903F23F4803342F80439136843F495
:102F300080331360FEF7A8BF704700000080024096
:102F4000DCEC07200C49002009680B4A121D1268AE
:102F50001140094A083211600A0700D5012009060C
:102F600001D540F00200002804D004490968002976
:102F700000D0084770470000E00F005098EE07208F
:102F8000F0B5DFF848C09CF80020732A1CD8203820
:102F900000EBC00101EB001081B20D4C0D4BACF801
:102FA0000410002001EB4005254487186E78AD78A9
:102FB000DE55FE18401CC0B286F880500C28F1D3B4
:102FC000605C10448CF800000020F0BD44ED072048
:102FD0003C460100B8210010F0B5DFF84CC0BCF849
:102FE0000220B2F5BA7F1DD2203800EBC00101EB00
:102FF000001081B20D4C0E4BACF80410002000BF45
:1030000001EB4005254487186E78AD78DE55FE1833
:10301000401CC0B286F880500C28F1D3605C10448C
:10302000ACF802000020F0BD44ED07203C46010052
:10303000B82100102DE9F05F1C46DDE90B9A15461A
:103040000E4607464FF0FF38082848D201F0A8FD89
:10305000401C44D0DFF898B007EB870825480BEBFD
:10306000880200EB47104FF0000CC2F810A0C0F827
:1030700010C0C0F80CC020494FF0010A0AFA07F34B
:103080008B600B61C0F808C0C1F830A00B6BDB0788
:10309000FCD09460B4F5805F01D340F6FF740A99C8
:1030A000066064F30B0145605FEA411C04D5C1F37F
:1030B000814C04FA0CFC66445FEA011C04D5C1F3A0
:1030C000415C04FA0CFC65444BF828605560D46000
:1030D000C160C0F810905FEAC97003D005E04046B7
:1030E000BDE8F09F3846FFF785FD0020F8E70000B7
:1030F0000C190820004100500040005010B5044653
:10310000082802D34FF0FF3010BDFFF773FD0548CC
:1031100000EB4410D0F8101121F00101C0F810119B
:10312000002010BD00400050082801D30020704747
:10313000074A00EB800102EB8101064AC96802EBF5
:103140004010D0F80C01C0F30B00081A70470000C3
:103150000C19082000400050184910B54868401C60
:103160004860012801D9002010BD154850F8C41F3F
:1031700041F0005101600020124C134A014600BF8B
:1031800004EB4013C3F8101100EB8003401C42F81D
:10319000231002EB8303082859609960D960EFD3AC
:1031A000FF20A06020611A2001F093FE4FF0E02183
:1031B0004FF08060C1F80001D5E70000D4ED072092
:1031C00000C00F40004000500C190820A0F1080278
:1031D000082A01D2012902D94FF0FF30704701229D
:1031E0000838824005480029D0F8C41101D01143A5
:1031F00000E09143C0F8C4110020704700C00F40A8
:103200000F4910B5486820B1401E486004D0002026
:1032100010BD4FF0FF3010BD0A4850F8C41F21F018
:10322000005101604FF0E0214FF08060C1F8800153
:10323000BFF34F8FBFF36F8F1A2001F04AFEE6E70E
:10324000D4ED072000C00F4001238B40034901EB60
:1032500040100AB183617047C361704700C0092004
:103260000549002851F8C40F02D040F4004001E0A5
:1032700020F400400860704700C00F40024901EB95
:10328000401040697047000000C0092010B5064C8E
:10329000012304EB40108B4001680AB1194300E0A0
:1032A0009943016010BD000000C00920014840683A
:1032B00070470000605001001CB50020ADF804000C
:1032C0001348817A890704D51021036801AA0120D7
:1032D0009847BDF80400009A40F34001491C61F38F
:1032E000010200924007009802D540F0040001E07E
:1032F00020F004000090009961F301000099890812
:1033000061F382000099C90861F3DF001CBD000071
:1033100088EE072008B50020ADF800000648817A45
:10332000890704D5012103686A4608469847BDF815
:103330000000C0F3800008BD88EE072030B10D49C1
:103340000979890705D44FF0FF3070476FF004000A
:1033500070474FF0A042116C0B0A43710171516C20
:103360000B0AC3708170916C0A0A427001700020D0
:103370007047000098EE07200E480079800707D5B7
:103380004FF0A041D1F81801D1F81411814201D1B8
:10339000002070470749303151F83000410002D514
:1033A0000549084202D04FF0FF307047C0F30A00D1
:1033B000C01E704798EE07200000901B6FF00300BE
:1033C00070470000826A126890F82000C24012F034
:1033D000030006D0012806D0022806D0032807D112
:1033E00005E0042104E0012102E0022100E00821BF
:1033F00002480068B0FBF1F070470000981C001014
:103400006FF003007047000001480068704700003B
:103410003C50010001480068704700006050010006
:10342000044801210173FE210174002180F860101D
:10343000704700000040024028B121B1074A937A4A
:10344000DB0703D008E06FF004007047C2E9000119
:1034500000201081012090720020704788EE072024
:103460002DE9FE4F4C4E82463079C00702D0002035
:10347000BDE8FE8F494A3620019001A9126808462E
:10348000904702982521B1EB106F01D1012700E090
:103490000027DFF80881002508F10408009544465C
:1034A00098F8051098F804002B46012200F0CAF99C
:1034B0000095E179A0790023012200F0C3F900957D
:1034C000617A207A0023012200F0BCF90095E17AAC
:1034D000A07A0023012200F0B5F90095617B207BE2
:1034E0000023012200F0AEF90095E17BA07B0023D0
:1034F000012200F0A7F90095617C207C00230122C5
:1035000000F0A0F90095E17CA07C0023012200F0EE
:1035100099F9DFF88C90234C4FF00003009537B3F6
:1035200000221021012000F08DF900231A461121FC
:103530000120009500F086F998F8011098F8000035
:103540000122FFF7A3FEC4F80890206920F4702040
:1035500020611548016C41F4807101647560B560AB
:10356000C6F800A0F5607771012030717FE7012275
:103570001021104600F066F90122002311211046A7
:10358000009500F05FF9C4F80890E06820F00F00A3
:10359000401DE060E2E7000098EE0720BCED072048
:1035A0000501155000C0024000C0092070B5054D4E
:1035B000002400BF15F8240009F0EEFB641C0B2C5E
:1035C000F8DB70BD9C4F0100F8B50120FFF748FE05
:1035D00000240F4D274600BF05EB44060097717885
:1035E00015F814000323002200F02CF9717815F867
:1035F00014000122FFF74AFE717815F8140000222A
:10360000FFF722FE641C042CE6D30020F8BD000066
:10361000C84F010010B50024042809D2064A02EB65
:10362000400112F8100049780022FFF70DFE01E07A
:103630004FF0FF34204610BDC84F010010B50024E4
:10364000042809D2064A02EB400112F8100049781A
:103650000122FFF7F9FD01E04FF0FF34204610BDD5
:10366000C84F010070B500240546012606FA04F093
:103670002842204602D0FFF7E1FF01E0FFF7CAFF32
:10368000641C042CF2D3002070BD00002DE9F0472B
:1036900016008846054608D037484FF0FF370179B5
:1036A000890705D43846BDE8F0876FF00400FAE7D3
:1036B0004079012827D04FF0A04448EA0520A062B5
:1036C00001206062FDF70AFEDFF8B0A08046002509
:1036D0004FF4FA79606BC0070FD0FDF7FFFDA0EB48
:1036E0000807FDF70DFEA0FB090152460023FCF779
:1036F00053FD381A75EB0100ECD3606BC00735D071
:103700006FF00200CFE71E4C0122E178A078FFF7AE
:10371000BDFD2021384608F065FD0421062008F093
:1037200061FD0521284608F05DFD0521404608F0B1
:1037300059FD09F017FA00252F466D0061782078B1
:103740000122FFF781FD617820780022FFF77CFDE0
:10375000A078FFF793FD800501D545F001057F1C9A
:10376000102FEAD3358009F0FDF902E06562206B85
:103770003080002097E7000098EE072040420F00BD
:10378000C0ED07202DE9F04706462B480C461546AC
:1037900001794FF0FF37890702D43846BDE8F0873A
:1037A0004079012825D044EA06204FF0A044A062C9
:1037B000E562FDF793FDDFF88490054600264FF49F
:1037C000FA78606BC0070ED0FDF788FD471BFDF748
:1037D00097FDA0FB08014A460023FCF7DDFC381AE0
:1037E00076EB0100EDD3606BC007D7D06FF002001D
:1037F000D4E713480122C1788078FFF747FD2021E4
:10380000384608F0EFFC0421052008F0EBFC052108
:10381000304608F0E7FC0521204608F0E3FC0221D1
:10382000084608F0DFFC1021284608F0DBFC09F010
:1038300099F90020B2E7000098EE072040420F00FF
:10384000C0ED0720F0B50024059E0D46102903D3D6
:10385000A1F11004E5B20124C70007EB8407124C64
:103860003C4427684FEA450C032505FA0CF5AF43A5
:103870002760276802FA0CF217432760226CAA43DC
:103880002264226C03FA0CF31A43226401228A4058
:103890000549012E01EB8000816E03D091438166C2
:1038A0000020F0BD1143FAE700C00240F8B5214CFA
:1038B00001004FF0FF35A07A03D0AE00022937D1C6
:1038C0000CE0C1072DD020F00200A0724FF400627E
:1038D00022810021636801209847F8BDC10720D0EC
:1038E000800701D50020F8BD022123686A46012027
:1038F0009847BDF80000B0F5005F19D10321236897
:103900006A4601209847BDF8000040F2C951B1EB6A
:10391000101F0DD1002222816368114601209847B3
:1039200008B12846F8BDA07A40F00200A072D9E79D
:103930003046F8BD88EE07202DE9F0415349544A3E
:1039400000254FF080564FF0E0274FF0A044B0B371
:10395000022807D0012802D0681FBDE8F0816FF06F
:103960000300FAE71079C30746D09046800742D497
:1039700051F8C40F40F0804008604FF44F40206081
:103980007820C4F800010820401EFDD102202060EC
:10399000B02060604FF4C060606143F20F7020613E
:1039A0001220E06048F23C0020620820401EFDD159
:1039B000384839490068884221D93C2039E0FFE77E
:1039C000C7F88061BFF34F8FBFF36F8FD1F8C4008A
:1039D00040F08040C1F8C4004FF40040206008204F
:1039E000401EFDD151F8C40F20F0804008601079CE
:1039F00020F00200107146E04FF0FF30ADE727499C
:103A0000884201D9382014E02549884201D9242070
:103A10000FE02449884201D91C200AE0224988424B
:103A200001D9142005E02149884201D90C2000E089
:103A3000002020624FF41070C4F800014FF40060C1
:103A4000A0610820401EFDD1A56125646564A564C0
:103A500003F034FD03F05EFD2020C4F80002144999
:103A60004FF6FF70086012488821001F0160C7F8F8
:103A70008062C7F80061C8F8085098F8041041F057
:103A8000020188F80410002067E7000000C00F4022
:103A900098EE0720981C001080D1F00800E1F50591
:103AA00000879303C00E1602002D31018096980006
:103AB000E80F00500B480178022901780AD001294B
:103AC0000ED1017841F00101017007480121006821
:103AD000FEF7DAB941F00201017002210348F6E76E
:103AE0007047000000400240CCEC0720D4EC0720D7
:103AF00070B50C4618B911B16FF0040070BD174ACB
:103B00001279920702D44FF0FF3070BD4FF0A045FC
:103B1000D5F81831114A103252F8332009E000BFAD
:103B200052F8046B40F8046B52F8046B40F8046BD5
:103B300008390729F4D804E032F8026B20F8026B48
:103B4000891E0129F8D809B1117801705B1C042B7A
:103B500000D10023C5F81831204670BD98EE07202B
:103B600008B515A000240068144E671E6D4600902D
:103B70003A4600210220FEF7B3F93078A8B118E0E8
:103B8000642200218020FEF7ABF902F01BFB052820
:103B900004D39DF80000FFF765FD06E0285DFFF700
:103BA00061FD641C022C00D3002402F00BFB0528ED
:103BB000E6D902F06FFADBE700080000C0EC07204E
:103BC0000EB52A4C00264FF0FF3842460021202037
:103BD000FEF786F9224626A1684601F059F98DF8CC
:103BE00002608DF805609DF8010002F0CDFA0346F1
:103BF0009DF8000002F0C8FA00EB800003EB4000E3
:103C0000C5B29DF8040002F0BFFA03469DF8030018
:103C100002F0BAFA00EB800003EB4000C3B29DF85B
:103C2000060002F0B1FA4FF47A7100FB01F79DF83B
:103C3000070002F0A9FA00EBC00101EB001007EB4E
:103C400080079DF8080002F09FFA00EB800007EB68
:103C500040079DF8090002F097FA384482B21946ED
:103C6000284608F0ABFB02F015FAAEE723ED07207B
:103C7000257300001CB500256E1E32460021202051
:103C8000FEF72EF91C4A1DA1684601F001F98DF8D6
:103C900002508DF805509DF8010002F075FA0346B8
:103CA0009DF8000002F070FA00EB800003EB40008A
:103CB000C4B29DF8040002F067FA03469DF80300C1
:103CC00002F062FA00EB800003EB4000C3B29DF803
:103CD000070002F059FA07469DF8060002F054FA70
:103CE00000EB800007EB4000C0B22246194608F006
:103CF0006FFB02F0CFF9C0E70EED0720257300003F
:103D0000114C4FF0FF354FF47A762A4600210420FB
:103D1000FEF7E6F802F0A2FA2A4600211020FEF78C
:103D2000DFF8207810B90420FFF79CFC3246002110
:103D30008020FEF7D5F8207810B90020FFF792FC1C
:103D400002F0A8F9E1E70000C0EC0720014A00F00A
:103D50007FB80000B4500100014900F06BBA0000C8
:103D6000B4500100014900F074BA0000B4500100E1
:103D70000848016C097B490701D40020704790F87E
:103D8000341019B190F83500FFF7CEB9406CC06817
:103D900070470000B4500100114808B5016C0A7961
:103DA000009962F300010091016C4A79009962F375
:103DB00041010091006C8179009861F382000090CC
:103DC000009961F300000099490861F341000099EE
:103DD000890861F382000099C90861F3DF0008BD1A
:103DE000B4500100014800F03ABA0000B45001009C
:103DF000014900F09BBA0000B4500100014900F0F5
:103E0000DFBA0000B4500100014A00F08DBB000091
:103E1000B4500100014A00F01DBC0000B450010084
:103E2000014B00F0ADBC0000B4500100014800F0AF
:103E300041BD0000B45001000148406870470000D7
:103E4000AC5001000148006870470000AC50010010
:103E50002DE9F84F0646106C0F464FF00009017B24
:103E600014464FF0020ACB4689077DD5F1B20025F2
:103E70000091142904D0017931B3A81EBDE8F88F50
:103E80002068416821F00201416020684561206C92
:103E9000007968B194F82C0018B194F82D00FFF760
:103EA0002DF994F8340018B194F83500FFF726F98D
:103EB0001C21606CFCF705FA206C057120684168D4
:103EC00041F002014160B1E1009904297ED007DC94
:103ED00089B1012921D0022953D0032908D175E0E5
:103EE000102939D011296ED012296DD013296CD028
:103EF0006FF00300C2E72068416821F002014160D1
:103F000020684561206C816821F0FF018160106CA0
:103F1000017B21F00401017388E12068416821F0F0
:103F200002014160206845612068416821F0040178
:103F30004160216C886820F0FF008860216C40F0AF
:103F400001008860206C017B41F00401017320684E
:103F5000416841F002014160002F05D01046FFF793
:103F600031FA4FEA001C00E085E03B01022100200D
:103F7000421C4A43BCFBF2F293422AD18A46814654
:103F80003AE02068416821F0020141602068416800
:103F900041F00401416021684FF001004861216C4B
:103FA000886820F0FF008860216C40F00200886083
:103FB000206C017B41F0040101732068416841F0ED
:103FC000020141602CE033E041E043E06FF0060085
:103FD00054E708D9A3EB0B07A3EB0208474502D926
:103FE00093468A468146401CFF28C1D9891CFF2977
:103FF000BDD3BBF1000F3ED021680AF0FF0008617D
:104000002068016821F47F410160206801684FF653
:10401000FF7303EA0922114301600098102818D0A9
:10402000216C6FF00A078868C2B2012A28D062E0CA
:104030001046FFF7C7F90146206802690068D2B24E
:10404000C0F30720401C4243B1FBF2F016E7506C6E
:104050000783EBE08068764908406FF40021C8428E
:1040600009D1506838B1417800783FB15FF0000263
:10407000FFF7EAF8DAE04FF0FF30FFE60122F7E75A
:1040800016F4C01209D0B2F5002F17D0B2F5801F78
:1040900037D0B2F5C01F2ED10DE0606830B1009569
:1040A0004178002300781A46FFF7CCFB206C81682A
:1040B00021F4C0111EE020F4C01057E020F4C0101D
:1040C00088606068A8B300954178007803230022D7
:1040D000FFF7B8FB6068012241780078FFF7D6F857
:1040E0006068012241780078FFF7AEF8206C8168A3
:1040F00041F400218160216C8868C2B2022A11D08B
:1041000024E020F4C0108860606890B10095417888
:10411000227D00780323FFF795FB206C816841F432
:104120008011E7E716F4001204D0B2F5001F1ED18B
:104130001AE01CE020F4001088606068B8B10095B7
:104140004178227D00780323FFF77CFB06F4E060D2
:10415000B0F5407F4FD00CDCA0B1B0F5807F1BD014
:10416000B0F5007F0BD137E020F4001088603846AE
:1041700084E6B0F5806F48D0B0F5A06F4CD06FF0FA
:1041800007007BE62068016821F0300101602068AB
:10419000016821F0C0010DE02068016821F03001C4
:1041A00001602068016821F0400101602068016819
:1041B00041F080010160C6F30530011F0C2932D89F
:1041C00021680A68401E22F00F0202430A60700351
:1041D0002CD56FF0090051E62068016821F030010C
:1041E00001602068016841F04001016020680168B9
:1041F00021F08001DEE72068016821F030010160D4
:104200002068016841F0C001D4E72068016821F00E
:10421000300141F01001CDE72068016821F0300144
:1042200041F02001C6E76FF0080027E6002025E6F0
:10423000FF00180001280BD1486C0268C2600A6CAC
:1042400000201071086C0168002901D00120084786
:104250007047012802D1486C01680161704770B550
:1042600004460068C56905F0030101622068C06862
:1042700080071DD5616C0A690868904218D98A6860
:104280007AB1501C886011782268126802F00F021F
:10429000072A07D9626C431C9360007841EA002129
:1042A00000E0098B20688160606C0169491C016134
:1042B0002068C16849072BD58068616C82B2CB68E1
:1042C0000868984224D94B686BB1581C48601A7032
:1042D0002168096801F00F01072904D9616C130AEC
:1042E000421C4A600370616CC868401CC860616C05
:1042F000096888420CD12068416921F00F014161B1
:10430000216C00200871206C016809B101208847E8
:10431000E8070AD0216C01204871206C016800294F
:1043200003D0BDE870400220084770BD38B50C4688
:10433000096C0A7BD20701D0002038BD0860206CD0
:1043400000251C210571206C4571206C8571606C05
:10435000FBF7B7FF0095A068627D002341780078E5
:10436000FFF770FAE06830B100954178A27D0078DF
:104370000023FFF767FA206930B100954178E27DAC
:1043800000780023FFF75EFA94F82C0010B994F837
:10439000340088B1FEF7E0FE94F82C0020B194F8C8
:1043A0002E000021FEF712FF94F8340020B194F89B
:1043B00036000021FEF70AFF216C01200873BBE7DD
:1043C0002DE9F041002501270C460326A8B3022859
:1043D00007D0012802D0681FBDE8F0816FF003000C
:1043E000FAE7206C007BC10775D0800771D4E069C3
:1043F0000168A26911430160A06A016894F8202055
:1044000006FA02F29143016094F82010606A884035
:10441000A16A0A6810430860206845612068066246
:10442000206C0571206C4571206C8571206C017BBE
:1044300041F002010173206851E0FFE794F93C006C
:1044400000280CDB00F01F018F404009800000F1C4
:10445000E020C0F88071BFF34F8FBFF36F8FE0692A
:104460000168A26911430160206C007968B194F879
:104470002C0018B194F82D00FEF740FE94F834009B
:1044800018B194F83500FEF739FE206845612068C0
:1044900045622068056020684560206805612068E5
:1044A0000662E0690168A2699143016094F93C00E9
:1044B00000F002FD206C1C210571206C4571206C00
:1044C0008571606CFBF7FDFE206C017B21F0020121
:1044D000017327E0FFE74FF0FF307DE78168C16897
:1044E0004907FBD494F82C1019B1416A41F002013C
:1044F000416294F8340020B12068416A41F0010122
:10450000416214F93C0F00F0D7FC94F90000002838
:1045100008DB00F01F018F404009800000F1E0201F
:10452000C0F80071002057E7FEB514460D460200A2
:104530000AD04DB1206C4FF0FF36017B49077FD583
:10454000017921B17000FEBD6FF00400FEBD0121B4
:104550000171216C00203E4F4871216C8871616CA3
:104560000B8B7B604A60616C8860616C0D60616C74
:10457000C860616C086194F82C00E8B394F83400CA
:10458000D0B394F836103E2303EA41014DF2010303
:104590000B442168A06B0F6807F00F07072F01D9A4
:1045A000012700E00027D1F800C0BF040CF00F0C79
:1045B000BCF1070F02D94FF0010C01E04FF0000CE5
:1045C00047EA4C5747F008470097CDE9013094F887
:1045D00035002B460831FEF72DFD401C30D094F8F5
:1045E0002E004FF4F86202EA80104CF601021044EB
:1045F0002268216B136800E024E003F00F03072B0F
:1046000001D9012300E0002317689B0407F00F077E
:10461000072F01D9012700E0002743EA475343F061
:1046200000430093CDE90101094994F82D002B4680
:10463000091D0832FEF7FEFC401C00E000E004D13A
:104640003046FEBD21680F2048610020FEBD0000FD
:10465000901C0010FEB50D46060014460AD04DB160
:10466000206C4FF0FF37017B49077DD5017921B1DF
:104670007800FEBD6FF00400FEBD01210171216CC8
:1046800000204871216C8871616C4860616C8E609B
:10469000616C0D60616CC860616C086194F82C00FD
:1046A000F0B394F83400D8B394F836103E2202EAFE
:1046B00041014DF201020A442168A06B0B6803F02E
:1046C0000F03072B01D9012300E00023D1F800C01C
:1046D0009B040CF00F0CBCF1070F02D94FF0010C3A
:1046E00001E04FF0000C43EA4C5343F000430093C9
:1046F000CDE9012094F835002B46204A0831FEF719
:1047000099FC401C33D094F82E004FF4F86202EA72
:1047100080104CF6010210442268216B136800E0FF
:1047200027E003F00F03072B01D9012300E000234A
:10473000D2F800C09B040CF00F0CBCF1070F02D99B
:104740004FF0010C01E04FF0000C43EA4C5343F0F2
:1047500004430093CDE9010194F82D002B46314626
:104760000832FEF767FC00E001E0401C04D1384647
:10477000FEBD11680F2048610020FEBD901C001096
:10478000FEB515460A4606001C460BD052B14DB187
:10479000206C4FF0FF37017B490771D5017921B1BA
:1047A0007800FEBD6FF00400FEBD01210171216C97
:1047B00000204871216C8871616C4A60616C8E6068
:1047C000616C0D60616CC860616C086194F82C00CC
:1047D000E8B394F83400D0B394F836103E2303EADB
:1047E00041014DF201030B442168A06BD1F800C0D8
:1047F0000CF00F0CBCF1070F02D94FF0010C01E0D7
:104800004FF0000CD1F800E04FEA8C4C0EF00F0E88
:10481000BEF1070F02D94FF0010E01E04FF0000E7C
:104820004CEA4E5C4CF0084CCDF800C0CDE90130AC
:1048300094F835002B460831FEF7FCFB401C32D0C3
:1048400094F82E104FF4F86202EA811100E02CE097
:104850004CF6010211442268206B136803F00F0329
:10486000072B01D9012300E00023D2F800C09B04EC
:104870000CF00F0CBCF1070F03D94FF0010C02E054
:1048800011E04FF0000C43EA4C5343F00443009313
:10489000CDE9011094F82D002B4631460832FEF781
:1048A000C9FB401C04D13846FEBD19680F20486181
:1048B0000020FEBD38B504464068002530B10095A3
:1048C0004178002300781A46FEF7BCFF0095A068E7
:1048D00000231A4641780078FEF7B4FFE06830B153
:1048E00000954178002300781A46FEF7ABFF206957
:1048F00030B100954178002300781A46FEF7A2FFF8
:1049000094F82C0010B994F8340008B1FEF778FC44
:10491000206C0573002038BD02F06AFD0125AE1E33
:10492000194C2F02324601213846FDF7D9FAADB1B4
:1049300007F00EFDFA2200218020FDF7D1FAD4F80D
:10494000940040F48030C4F89400D4F88C0040F413
:104950008030C4F88C0085F0010511E0FA220021B6
:104960008020FDF7BDFAD4F8900040F48030C4F800
:104970009000D4F88C0040F48030C4F88C000125FD
:1049800001F088FBCEE7000000800240F0B538B1AE
:1049900031B1254C23799B0705D44FF0FF30F0BD92
:1049A0006FF00400F0BD4FF0A046A368D6F8285180
:1049B0001D4F50372BB1D4F80CC08C44C4F80CC038
:1049C0000DE057F83530E16009E000BF50F804CB46
:1049D00043F804CB50F804CB43F804CB083907293B
:1049E000F4D804E030F802CB23F802CB891E012969
:1049F000F8D811B1007803F8010BD00701D0A360FB
:104A00000FE0E06807EBC501401E40F04040486001
:104A10000020A0606D1CE060032D00D10025C6F8C9
:104A200028510020F0BD000098EE0720F0B50300EB
:104A300002D109B1401FF0BD2748007982074FF02D
:104A4000FF30F8D54FF0A042D2F8004224F018040D
:104A5000C2F800420024C2F81442C2F8104221B346
:104A600086460127DFF874C01C460626704600BF44
:104A700014F8015B95FAA5F56840082500284FEA6F
:104A8000400001DA80EA0C006D1EF7D1761EEFD1EE
:104A9000C00D84060BD5D2F8144200F01F0007FAAF
:104AA00000F00443C2F814420AE00020F0BDD2F83E
:104AB000104200F01F0007FA00F00443C2F8104251
:104AC000491E03F10603CDD1D2F8000240F01800D0
:104AD000C2F80002E9E7000098EE0720B71DC10404
:104AE00009498A7A920702D44FF0FF30704720B10B
:104AF000012804D06FF003007047012200E021225A
:104B00004B6817210120184788EE072030B10A4969
:104B10000979890705D44FF0FF3070476FF0040022
:104B200070474FF0A04182880A6442884A64008836
:104B3000886400207047000098EE0720174930B4C1
:104B40008A7A920703D44FF0FF3030BC70470A894D
:104B500010F0030402F400626FF0030303D0012C91
:104B600006D142F4005210F0040405D0042C01D008
:104B70001846EAE742F48072030701D542F48052F6
:104B8000C30601D542F48042800601D542F480621A
:104B90000A814B68002130BC0120184788EE0720AD
:104BA000094A012111FA00F152E8000F014204D034
:104BB000BFF32F8F4FF0FF307047084342E80003E8
:104BC000002BF1D100207047D4ED072070B52D4C9B
:104BD000D4F888002C4D6FEA10608007D4F80C01DF
:104BE00000F003000BD028B101283DD0022840D0AE
:104BF00003282BD1D4F804012449C0B23EE000219F
:104C000028B101280CD0022821D003281ED154F845
:104C1000880FC0F3074220681D49C0F30E0007E06B
:104C200054F8880FC0F3074220681A49C0F30E00F9
:104C3000401CA0FB01010023521CFBF7ADFAE26F00
:104C40000023D2B2521CFBF7A7FA286070BD54F8BB
:104C5000880FC0F3074220680904C0F30E00401C0F
:104C600041EA10410004E6E7D4F804010A49C0B261
:104C700004E0D4F804014FF40041C0B2401CB1FB81
:104C8000F0F0E2E700C00F40981C001000093D0062
:104C900000127A0000366E01001BB70070B5304874
:104CA0002021C0F8A011D0F8A011890604D500BFBA
:104CB000D0F8A0114906FBD50325C0F80451002304
:104CC000C0F8A831C0F8AC310124C0F80C41254926
:104CD000C0F88410AA22C0F88C205521C0F88C108E
:104CE000C0F88040C0F88C20C0F88C10D0F88860E4
:104CF0007601FBD5C0F88050C0F88C20C0F88C102D
:104D0000D0F88860C6F30166032EF9D12326C0F8D7
:104D1000A460C0F8AC20C0F8AC10C0F8A040C0F847
:104D2000AC20C0F8AC1000BFD0F8A8406405FBD59B
:104D3000C0F8A050C0F8AC20C0F8AC10D0F8A81053
:104D4000C1F301210329F9D10749C0F8C410C0F803
:104D5000C831016821F4704141F48041016070BDA7
:104D600000C00F4063000500DE87280402480421CC
:104D70008069FDF789B80000C0EC072003480021D6
:104D800001604160018181720846704788EE07200A
:104D9000F8B500252E4E2F4C2B46357100956179C4
:104DA00020792A46FEF74EFD00950023E179A0798F
:104DB0001A46FEF747FD00950023617A207A1A46CD
:104DC000FEF740FD00950023E17AA07A1A46FEF72F
:104DD00039FD00950023617B207B1A46FEF732FDEA
:104DE00000950023E17BA07B1A46FEF72BFD009582
:104DF0000023617C207C1A46FEF724FD00950023E9
:104E0000E17CA07C1A46FEF71DFD70790095002814
:104E1000617820782B461A460FD0FEF713FD0095D7
:104E20000023E178A0781A46FEF70CFD617820781F
:104E30000022FEF72BFA0020F8BDFEF703FD0095D7
:104E40000023E178A0781A46FEF7FCFCF3E70000A7
:104E500098EE0720C0ED072010B5012084072061DF
:104E6000094800680009FBF78DFB0849FBF741FB87
:104E7000FBF78DFB6060207840F001002070BDE8FA
:104E8000104001F007B90000981C00100000A0407D
:104E90000FB4084B10B504A902AA039800F0FAF861
:104EA000044602A9002000F08CFC204610BC5DF8EE
:104EB00014FB0000C3570000002809DB00F01F02AC
:104EC000012191404009800000F1E020C0F88012EB
:104ED0007047002809DB00F01F02012191404009C2
:104EE000800000F1E020C0F8801270470048704751
:104EF000C41C001002E008C8121F08C1002AFAD121
:104F00007047002001E001C1121F002AFBD1704749
:104F10002DE9FF5F82B00021DDE90430020DDDF8EC
:104F200040B0034318D044F61050A2F2FF3242437F
:104F30001514119801281FD0A5EB0B00401C5FEA47
:104F4000000A4FF000064E4FDFF83891B046504649
:104F500015D5CAF1000413E0119801244AA30128D1
:104F600001D16FEA0B010298119AC0E90031C0E942
:104F7000024206B0BDE8F09FCBF10000DFE7044637
:104F80000021404A491842EB0450CDE9001012E0DC
:104F9000E00707D032463B4640464946FBF7ACFCAB
:104FA0008046894632463B4610461946FBF7A4FC2C
:104FB00006460F466410002CEAD1DDE90401DDE964
:104FC0000023BAF1000F06DAFBF796FC42464B4687
:104FD000FBF792FC05E0FBF701FD42464B46FBF771
:104FE000FDFC04460E460022284BFBF77FFD03D84C
:104FF0004FF0FF30014607E00022254B20463146A6
:10500000FBF7D3FBFBF759FD102409E0002C0ADB6A
:105010000A220023FBF7C0F8039B30321A55641EA6
:1050200050EA0102F2D1641C039AC4F11103144442
:10503000119A012A03D0012208430DD10AE0084346
:1050400004D000204FF0110B119072E7A3EB0B0579
:105050006D1E0DE05B4504DD4FF0000205F101051A
:1050600004E003DA4FF00002A5F10105002AECD0BC
:1050700002981199C0E90231C0E9004579E70000C2
:10508000000014400000F03F300000000000F0433A
:105090000000E03F2DE9FF4F95B09B46894606464C
:1050A00000250FE2252877D100242746F84A012160
:1050B000059400E0044316F8013F203B01FA03F099
:1050C0001042F7D130782A2811D06FF02F033078B2
:1050D000A0F13002092A16D8059A44F0020402EB26
:1050E000820203EB42021044761C0590EFE759F868
:1050F000042B0592002A03DA504244F40054059030
:1051000044F00204761C30782E2816D116F8010FD0
:1051100044F004042A280DD06FF02F023078A0F15B
:105120003003092B09D807EB870302EB4303C718A9
:10513000761CF3E759F8047B761C30786C280FD086
:1051400006DC4C2817D068280DD06A2814D104E05A
:10515000742810D07A280FD10DE044F400140AE02E
:1051600044F4801401E044F440147278824202D185
:1051700004F58014761C761C307866280BD013DC7E
:10518000582877D009DC002875D04528F6D0462865
:10519000F4D047281AD19DE118E0632835D064285F
:1051A00079D0652812D195E1702873D008DC672882
:1051B000F1D069286FD06E280DD06F2806D1B5E0E8
:1051C00073282CD0752875D0782874D05A46179932
:1051D00090476D1C75E1C4F30250022809D00328E2
:1051E0000DD0D9F8001004280DD00D6009F1040984
:1051F00067E1D9F80010EA17C1E90052F6E7D9F8DB
:1052000000100D80F2E70D70F0E719F8041B8DF81F
:10521000001000208DF80100EA46012003E059F853
:1052200004AB4FF0FF3061074FF0000102D40DE0F6
:1052300008F101018846B9420FDA8045F8DB1AF817
:1052400008100029F4D108E008F1010188468142E4
:10525000FADB1AF808100029F6D105985B46A0EB96
:10526000080721463846179A00F094FA284400EBC4
:10527000080507E04DE029E10DE01AF8010B5A4658
:1052800017999047B8F10108F7D25B462146384696
:10529000179A13E142E00A220092C4F302524FF03F
:1052A000000A022A08D059F804CB032A4FEAEC710D
:1052B0000AD00DE029E02AE009F1070121F00702F8
:1052C000F2E802C1914609E00FFA8CFC4FEAEC715A
:1052D000042A03D14FFA8CFC4FEAEC71002907DA5B
:1052E0000A460021DCF1000C61EB02012D2202E0F4
:1052F000220504D52B228DF80420012203E0E207C9
:1053000001D02022F7E7904659E00A2102E010225E
:105310000DE010214FF0000A00910BE010224FF039
:10532000000A44F004040827009203E008224FF02A
:10533000000A0092C4F30252022A05D059F804CBA5
:105340000021032A08D009E009F1070121F0070232
:10535000F2E802C1914605E01FFA8CFC042A01D153
:105360000CF0FF0C4FF00008220728D5702806D05B
:10537000009B83F0100353EA0A0305D00EE040229D
:105380008DF80420012208E05CEA010206D03022F8
:105390008DF804208DF8050002229046009B83F0D2
:1053A000080353EA0A030AD15CEA010201D1620749
:1053B00005D530228DF804204FF001087F1E5828B3
:1053C00004D034A003900EA802900DE036A0F9E7B7
:1053D00053466046009AFAF7DFFE84460398825CE3
:1053E0000298401E029002705CEA0100F0D102981F
:1053F00006A9081A00F1200A600702D524F48034B7
:1054000000E00127574502DDA7EB0A0000E000207D
:1054100000EB0A01009005984144401A0590E00312
:1054200006D45B462146179A059800F0B3F9054467
:10543000002706E001A85A46C05D179990476D1CE9
:105440007F1C4745F6DBE0030CD55B462146179AE7
:10545000059800F09FF9054404E030205A4617995A
:1054600090476D1C0099481E00900029F5DC08E06B
:10547000029802995A460078491C02911799904760
:105480006D1CBAF10001AAF1010AF1DC65E100002E
:10549000092801003031323334353637383961620A
:1054A00063646566000000003031323334353637CE
:1054B00038394142434445460000000000F058F9A5
:1054C0000544761C307800287FF4ECAD19B02846EE
:1054D000BDE8F08F620700D4062709F1070222F029
:1054E000070CFCE80223E14603F000485FEA080CE1
:1054F00002D00FF2702C0DE05FEA045C02D50FF2CF
:10550000682C07E05FEAC47C02D00FF2602C01E057
:10551000AFF2700C4FF0FF3823F00043CDF850C0CD
:1055200065280CD006DC452809D046281DD0472820
:105530003DD13DE0662818D067287ED138E00021B3
:10554000112F01DB112000E0781CCDE9000106A934
:105550000EA8FFF7DDFCDDE90F010E9A0391002193
:10556000009207F1010A04914DE04FF000400097CE
:10557000CDE9011006A90EA8FFF7CAFCDDE90F026C
:1055800003920E9B11990022DDF80CA00093049267
:1055900011B9791C00EB010AB7EB0A0004D4C0F181
:1055A000FF3007F1010A0490AAEB0700019044E0E4
:1055B000012F00DA01270021112F01DD112000E069
:1055C0003846CDE9000106A90EA8FFF7A1FCDDE9E8
:1055D0000F010E9A0391002104910092BA4621070F
:1055E0000CD40399514500DA8A46BAF1010F05DD62
:1055F000009AAAF10101515C302908D0B84202DAC0
:1056000010F1040F06DA0121CDE9011015E0AAF12D
:105610000101E9E7002805DC049901440491AAEBA3
:10562000000102E0411C514500DD8A460499401A00
:10563000401C01904FF000400290200704D40198D4
:10564000504501DBCDF8048000208DF84F00029812
:105650000DF14F07B0F1004F25D02B200E9002988E
:105660004FF0020800280CDA404202902D200E90E4
:1056700007E00A210298FAF7B1FF3031029007F8EB
:10568000011DB8F10001A8F10108F2DC0298002820
:10569000EFD1791E0E980870307800F0200040F0AD
:1056A000450007F8020D12A8C01B00F10708149866
:1056B000007800B1012000EB0A01019801EBE071D4
:1056C00005984144401A401E0590E00306D45B460D
:1056D0002146179A059800F05DF805441498007863
:1056E00018B15A46179990476D1CE00324D55B46C4
:1056F0002146179A059800F04DF805441CE00498DF
:10570000002807DBDDE90301884203DD0098405CE7
:10571000179901E0179930205A469047049805F1EF
:105720000105401C04900198401E019004D12E20D8
:105730005A46179990476D1CBAF10001AAF1010A67
:10574000DDDC05E017F8010B5A46179990476D1CF0
:10575000B8F10001A8F10108F4DC5B462146179A74
:105760000598ABE62D0000002B0000002000000093
:105770002DE9F041044600251E461746880404D44E
:1057800005E039462020B0476D1C641EF9D5284637
:10579000BDE8F0812DE9F041044600251E46904603
:1057A000C80301D5302700E02027880404D505E090
:1057B00041463846B0476D1C641EF9D52846BDE801
:1057C000F0810A68531C0B601070704770B5174C5D
:1057D0000546002626704FF480706080E66006E083
:1057E000285C6070FDF7CCFBE068401CE060284658
:1057F000FAF772FD0146E0688142F1DCE66005F1EE
:10580000150607E02844407DE080FDF7E5FBE068F1
:10581000401CE0603046FAF75FFD0146E0688142D7
:10582000F0DCBDE8704000F0DFBA000044ED072076
:1058300003498A68117801B902A206A1FFF728BBC3
:10584000B45201004B65696C2D455745422F322EED
:10585000310000005365727665723A2025730D0A97
:105860000000000008B50120009001F0D7FD02F013
:105870007DFF002211462048FCF744FB1F4C00220C
:105880001146A0601E48FCF73DFB002260601146F7
:105890001C48FCF737FB0022E06011461A48FCF771
:1058A00031FB0022206111461848FCF72BFB002237
:1058B000606111461648FCF725FB0022A0611146E5
:1058C0001448FCF71FFBE06100236A4601211248DF
:1058D000FCF73CFB206210B11049FCF74FFB43F290
:1058E000C82200218020FCF7FBFA0421A069FCF704
:1058F000CBFAFCF7B1FA0000B52B0000C0EC072092
:10590000312E0000753C0000C13B0000613B0000EF
:10591000013D0000194900006D4D000020BF02004C
:10592000F0B51F4B01211A4618691269806992F877
:105930001CC0074603E002785AB11430491C8C455C
:10594000F9D2186900210A46457F01242E463B46BC
:1059500017E08173F0BD1878032810D1587801281A
:1059600002D0022806D00AE0D878A84207D205461D
:10597000214604E0D878B04201D2064622461433CC
:10598000641CA445E7D201B9114639B101EB81008D
:105990006FF0130202EB80003844DAE70020F0BD1C
:1059A0004452010001787F2913D00E22B2EB111F5F
:1059B0000FD0006800BA60B1411C0AD00849CA681B
:1059C000C9685268896813BA09BA80EA03020A42B0
:1059D00001D0002070470843401CFBD001207047D5
:1059E0004452010010B50E4C2078C00703D06088E7
:1059F00010B1401E608010BD607850B1401E6070D4
:105A0000092000226080211DBDE81040104600F0F2
:105A1000AFB8E168012088470020207010BD000069
:105A2000985900102DE9F0412B4E00214FF001084C
:105A3000326933694FF4106794690A461B7F47E067
:105A40002578022D01D0042D40D1C588BD420DD14D
:105A50008568D4F808C0654538D18589B4F80CC08C
:105A6000654533D1D0F80E00606020E0D0F80E50CC
:105A7000D4F804C0654529D18168A1608089A081DE
:105A80002569226111E0B0686F680168C5F80A10E5
:105A90008088E881A0686860A0892881316A2846EA
:105AA0008847284604F0D8FE3D46002DEBD16078AB
:105AB000022801D184F801803069407FE0703069AC
:105AC000807FA07003202070BDE8F081491C143451
:105AD0008B42B5D8F8E700004452010010B50146EA
