:020000040000FA
:100000000802001069010000710100007301000086
:100010007501000077010000790100000000000078
:100020000000000000000000000000007B01000054
:100030007D010000000000007F0100008101000040
:1000400083010000830100008301000083010000A0
:100050008301000083010000830100008301000090
:100060008301000083010000830100008301000080
:100070008301000083010000830100008301000070
:100080008301000083010000830100008301000060
:100090008301000083010000830100008301000050
:1000A00083010000830100000103000083010000C0
:1000B0008301000083010000830100008301000030
:1000C00083010000830100008301000000F002F8BA
:1000D00000F03AF80AA090E8000C82448344AAF1A8
:1000E0000107DA4501D100F02FF8AFF2090EBAE8A6
:1000F0000F0013F0010F18BFFB1A43F0010318475C
:10010000B8010000E8010000103A24BF78C878C1A7
:10011000FAD8520724BF30C830C144BF04680C600D
:10012000704700000023002400250026103A28BF55
:1001300078C1FBD8520728BF30C148BF0B60704759
:100140001FB51FBD10B510BD00F02FF81146FFF709
:10015000F7FF00F07DF800F04DF803B4FFF7F2FF71
:1001600003BC00F055F800000948804709480047E3
:10017000FEE7FEE7FEE7FEE7FEE7FEE7FEE7FEE757
:10018000FEE7FEE704480549034A054B70470000B7
:1001900081040000CD00000000C20720080200100A
:1001A00008000010704770477047754600F02CF843
:1001B000AE4605006946534620F00700854618B054
:1001C00020B5FFF7DFFFBDE820404FF000064FF0FD
:1001D00000074FF000084FF0000B21F00701AC467C
:1001E000ACE8C009ACE8C009ACE8C009ACE8C0099B
:1001F0008D46704710B50446AFF300802046BDE839
:100200001040FFF7AABF000000487047A0C10720B8
:1002100001491820ABBEFEE726000200704700002F
:1002200000BF01218140054A52E8002F22EA010166
:10023000024B43E80012002AF3D17047000000107F
:100240000146080B102802D30E2202EBD0007047A3
:1002500070B588B013A30FCB04AC0FC4002403E027
:10026000FF2014490855641CFF2CF9D9002404E030
:1002700004A8005D0F490855641C102CF8D34FF4F6
:100280000040FFF7DDFF05464FF41040FFF7D8FFB1
:1002900006464FF400430FCB8DE80F00002008B056
:1002A00070BD00000F1E2D3C4B5A69788796A5B48F
:1002B000C3D2E1F000C00720C0050000000000101C
:1002C0000800000008010000C80500000800001038
:1002D0000002000024010000C805000000C0072043
:1002E00000020000240100000000000000000000E7
:1002F000000000000000000000000000FFFFFFFF02
:1003000070B50024B2E05B4801680120A0400140C4
:10031000002975D0584901EB441556484068012121
:10032000A140084000287DD00120A04051498860AC
:1003300004EB8400514901EB8000C06804EB8401A8
:100340004E4A02EB8101896888425AD004EB84004E
:10035000114601EB8000806804EB840102EB81010F
:10036000C968461AB6F5805F01D340F6FF7604EB04
:100370008400424901EB8000C068304404EB8401F2
:100380003E4A02EB8101C860E86800F0806098B1E5
:1003900004EB8400114651F82000286004EB84002F
:1003A00051F82010E868C0F3814006FA00F00844D4
:1003B00004EB840142F82100E86800F00060B8B165
:1003C00004EB84002D4901EB80004068686004EB79
:1003D000840001EB80004168E868C0F3415006FAF0
:1003E00000F0084404EB8401244A02EB81014860D8
:1003F000E86866F30B00E860286940F001002861B6
:1004000033E0E0B2FFF70CFF04EB84001B4901EB83
:100410008000006948B304EB84000A4602EB8000C8
:10042000016900E002E0012088471EE01148C06831
:100430000121A1400840C0B100202861E860E0B27D
:10044000FFF7EEFE0120A0400A49086104EB84009A
:100450000A4901EB8000006938B104EB84000A46C8
:1004600002EB8000016902208847641C082CFFF41D
:100470004AAF70BD004000500041005000C107204D
:1004800020204B4908604B48D0F8A00100F0200024
:1004900030B100BF4648006800F040000028F9D0A5
:1004A000032043499C39086000204249C1F8A80153
:1004B0003F490C31086001203D49943908603E48AD
:1004C0003C4984310860AA203A498C3108605520A3
:1004D00008600120374980310860AA2035498C31F5
:1004E000086055203349C1F88C0000BF314888307E
:1004F000006800F080600028F8D003202D4980318A
:100500000860AA202B49C1F88C00552029498C315C
:10051000086000BF27488830006800F04070B0F1E4
:10052000407FF7D123202349A4310860AA20214924
:10053000C1F8AC0055201F49AC31086001201D49AD
:10054000A0310860AA201B49AC3108605520194928
:10055000C1F8AC0000BF1748A830006800F4806004
:100560000028F8D003201349A0310860AA201149BF
:10057000C1F8AC0055200F49AC31086000BF0D48F0
:10058000A830006800F44070B0F5407FF7D10B4808
:100590000849C431086000200649C1F8C80108466E
:1005A000006820F4704040F480400860704700000C
:1005B000A0C10F4000C00F4063000500DE87280483
:0805C000000000000000000033
:04000005000000CD2A
:00000001FF
